{
  "contractName": "Counter",
  "abi": [
    {
      "constant": false,
      "inputs": [
        {
          "name": "x",
          "type": "uint256"
        }
      ],
      "name": "initialize",
      "outputs": [],
      "payable": false,
      "stateMutability": "nonpayable",
      "type": "function",
      "signature": "0xfe4b84df"
    },
    {
      "constant": true,
      "inputs": [],
      "name": "get",
      "outputs": [
        {
          "name": "",
          "type": "uint256"
        }
      ],
      "payable": false,
      "stateMutability": "view",
      "type": "function",
      "signature": "0x6d4ce63c"
    },
    {
      "constant": false,
      "inputs": [
        {
          "name": "n",
          "type": "uint256"
        }
      ],
      "name": "increment",
      "outputs": [],
      "payable": false,
      "stateMutability": "nonpayable",
      "type": "function",
      "signature": "0x7cf5dab0"
    },
    {
      "constant": false,
      "inputs": [
        {
          "name": "n",
          "type": "uint256"
        }
      ],
      "name": "decrement",
      "outputs": [],
      "payable": false,
      "stateMutability": "nonpayable",
      "type": "function",
      "signature": "0x3a9ebefd"
    }
  ],
  "bytecode": "0x608060405234801561001057600080fd5b5061019e806100206000396000f3fe608060405260043610610062576000357c0100000000000000000000000000000000000000000000000000000000900463ffffffff1680633a9ebefd146100675780636d4ce63c146100a25780637cf5dab0146100cd578063fe4b84df14610108575b600080fd5b34801561007357600080fd5b506100a06004803603602081101561008a57600080fd5b8101908080359060200190929190505050610143565b005b3480156100ae57600080fd5b506100b7610151565b6040518082815260200191505060405180910390f35b3480156100d957600080fd5b50610106600480360360208110156100f057600080fd5b810190808035906020019092919050505061015a565b005b34801561011457600080fd5b506101416004803603602081101561012b57600080fd5b8101908080359060200190929190505050610168565b005b806000540360008190555050565b60008054905090565b806000540160008190555050565b806000819055505056fea165627a7a72305820df02c271e59a92b053eb74b67a494e1de40e1ac1a441b8848841c0883b8de0030029",
  "source": "pragma solidity ^0.5.0; \r\n// imagine a big integer counter that the whole world could share\r\ncontract Counter {\r\n    uint value; \r\n    function initialize (uint x) public { \r\n        value = x;\r\n    }\r\n\r\n    function get() view public returns (uint) { \r\n        return value;\r\n    }\r\n    \r\n    function increment (uint n) public { \r\n        value = value + n;\r\n        return;\r\n    }\r\n    \r\n    function decrement (uint n) public { \r\n        value = value - n;\r\n        return;\r\n    }\r\n}\r\n",
  "sourcePath": "D:/Blockchain/counter-dapp/counter-contract/contracts/Counter.sol",
  "compiler": {
    "name": "solc",
    "version": "0.5.0+commit.1d4f565a.Emscripten.clang"
  },
  "schemaVersion": "3.0.2",
  "updatedAt": "2019-03-04T15:46:57.352Z",
  "devdoc": {
    "methods": {}
  },
  "userdoc": {
    "methods": {}
  }
}